{
  "contractName": "Images",
  "abi": [
    {
      "inputs": [],
      "payable": false,
      "stateMutability": "nonpayable",
      "type": "constructor",
      "signature": "constructor"
    },
    {
      "constant": false,
      "inputs": [
        {
          "name": "imageId",
          "type": "string"
        },
        {
          "name": "imageFingerprint",
          "type": "bytes32"
        }
      ],
      "name": "newImage",
      "outputs": [],
      "payable": false,
      "stateMutability": "nonpayable",
      "type": "function",
      "signature": "0xe13f96e2"
    },
    {
      "constant": false,
      "inputs": [
        {
          "name": "_address",
          "type": "address"
        }
      ],
      "name": "addAuthorizedUser",
      "outputs": [],
      "payable": false,
      "stateMutability": "nonpayable",
      "type": "function",
      "signature": "0x177d2a74"
    },
    {
      "constant": false,
      "inputs": [
        {
          "name": "id",
          "type": "string"
        }
      ],
      "name": "remove",
      "outputs": [],
      "payable": false,
      "stateMutability": "nonpayable",
      "type": "function",
      "signature": "0x80599e4b"
    },
    {
      "constant": true,
      "inputs": [
        {
          "name": "id",
          "type": "string"
        }
      ],
      "name": "getImage",
      "outputs": [
        {
          "name": "",
          "type": "bytes32"
        }
      ],
      "payable": false,
      "stateMutability": "view",
      "type": "function",
      "signature": "0xe802bf7d"
    }
  ],
  "bytecode": "0x608060405234801561001057600080fd5b5060018060003373ffffffffffffffffffffffffffffffffffffffff1673ffffffffffffffffffffffffffffffffffffffff16815260200190815260200160002060006101000a81548160ff02191690831515021790555061073e806100776000396000f3fe608060405260043610610062576000357c0100000000000000000000000000000000000000000000000000000000900463ffffffff168063177d2a741461006757806380599e4b146100b8578063e13f96e214610180578063e802bf7d14610252575b600080fd5b34801561007357600080fd5b506100b66004803603602081101561008a57600080fd5b81019080803573ffffffffffffffffffffffffffffffffffffffff1690602001909291905050506102ec565b005b3480156100c457600080fd5b5061017e600480360360208110156100db57600080fd5b81019080803590602001906401000000008111156100f857600080fd5b82018360208201111561010a57600080fd5b8035906020019184600183028401116401000000008311171561012c57600080fd5b91908080601f016020809104026020016040519081016040528093929190818152602001838380828437600081840152601f19601f82011690508083019250505050505050919291929050505061042d565b005b34801561018c57600080fd5b50610250600480360360408110156101a357600080fd5b81019080803590602001906401000000008111156101c057600080fd5b8201836020820111156101d257600080fd5b803590602001918460018302840111640100000000831117156101f457600080fd5b91908080601f016020809104026020016040519081016040528093929190818152602001838380828437600081840152601f19601f82011690508083019250505050505050919291929080359060200190929190505050610586565b005b34801561025e57600080fd5b506102d66004803603602081101561027557600080fd5b810190808035906020019064010000000081111561029257600080fd5b8201836020820111156102a457600080fd5b803590602001918460018302840111640100000000831117156102c657600080fd5b90919293919293905050506106e1565b6040518082815260200191505060405180910390f35b600160003373ffffffffffffffffffffffffffffffffffffffff1673ffffffffffffffffffffffffffffffffffffffff16815260200190815260200160002060009054906101000a900460ff1615156103d3576040517f08c379a00000000000000000000000000000000000000000000000000000000081526004018080602001828103825260238152602001807f4f6e6c7920617574686f72697a65642075736572732063616e20696e7465726181526020017f63742e000000000000000000000000000000000000000000000000000000000081525060400191505060405180910390fd5b60018060008373ffffffffffffffffffffffffffffffffffffffff1673ffffffffffffffffffffffffffffffffffffffff16815260200190815260200160002060006101000a81548160ff02191690831515021790555050565b600160003373ffffffffffffffffffffffffffffffffffffffff1673ffffffffffffffffffffffffffffffffffffffff16815260200190815260200160002060009054906101000a900460ff161515610514576040517f08c379a00000000000000000000000000000000000000000000000000000000081526004018080602001828103825260238152602001807f4f6e6c7920617574686f72697a65642075736572732063616e20696e7465726181526020017f63742e000000000000000000000000000000000000000000000000000000000081525060400191505060405180910390fd5b6000816040518082805190602001908083835b60208310151561054c5780518252602082019150602081019050602083039250610527565b6001836020036101000a03801982511681845116808217855250505050505090500191505090815260200160405180910390206000905550565b600160003373ffffffffffffffffffffffffffffffffffffffff1673ffffffffffffffffffffffffffffffffffffffff16815260200190815260200160002060009054906101000a900460ff16151561066d576040517f08c379a00000000000000000000000000000000000000000000000000000000081526004018080602001828103825260238152602001807f4f6e6c7920617574686f72697a65642075736572732063616e20696e7465726181526020017f63742e000000000000000000000000000000000000000000000000000000000081525060400191505060405180910390fd5b806000836040518082805190602001908083835b6020831015156106a65780518252602082019150602081019050602083039250610681565b6001836020036101000a0380198251168184511680821785525050505050509050019150509081526020016040518091039020819055505050565b600080838360405180838380828437808301925050509250505090815260200160405180910390205490509291505056fea165627a7a72305820452ef003ab86d79968f358c0c1f8cfc5ebb3bb94fe9599f4d3a9774b5ae01e100029",
  "source": "pragma solidity >=0.4.22 <0.7.0;\r\n//pragma experimental ABIEncoderV2;\r\n//SPDX-License-Identifier: UNLICENSED\r\n\r\n/**\r\n * @title Image Handling\r\n * @notice Contract for storing image keypoints, color histogram, metadata and image imageOwner\r\n * @author Roman Szabo\r\n */\r\ncontract Images {\r\n\r\n    constructor() public {\r\n        authorized[msg.sender] = true;\r\n    }\r\n\r\n    //Image fingerprint mapping\r\n    mapping(string => bytes32) imageFingerprints;\r\n    //Role ADMIN, API_USER\r\n    mapping(address => bool) authorized;\r\n\r\n\r\n    /**\r\n     * @notice Add new Image to blockchain storage\r\n     * @param imageId unique Id of image, equal to image id in DB\r\n     * @param imageFingerprint sha256 32 byte fingerprint of image data stored in db\r\n     */\r\n    function newImage(string memory imageId, bytes32 imageFingerprint) public {\r\n        require(authorized[msg.sender], \"Only authorized users can interact.\");\r\n        imageFingerprints[imageId] = imageFingerprint;\r\n    }\r\n\r\n    /**\r\n     * @notice Add authorized users\r\n     * @param _address Adress of the new user\r\n     */\r\n    function addAuthorizedUser(address _address) public {\r\n        require(authorized[msg.sender], \"Only authorized users can interact.\");\r\n        authorized[_address] = true;\r\n    }\r\n\r\n    function remove(string memory id) public {\r\n        require(authorized[msg.sender], \"Only authorized users can interact.\");\r\n        delete imageFingerprints[id];\r\n    }\r\n\r\n    /**\r\n     * @notice Returns all images\r\n     */\r\n    function getImage(string calldata id) external view returns (bytes32) {\r\n        return imageFingerprints[id];\r\n    }\r\n\r\n}\r\n\r\n",
  "sourcePath": "C:/Users/romco/Desktop/UniProjects/LP1/01638811-roman-zsabo/implementation/image-checker-contracts/contracts/Images.sol",
  "compiler": {
    "name": "solc",
    "version": "0.5.0+commit.1d4f565a.Emscripten.clang"
  },
  "schemaVersion": "3.0.2",
  "updatedAt": "2020-07-10T06:35:55.857Z",
  "devdoc": {
    "author": "Roman Szabo\r",
    "methods": {
      "addAuthorizedUser(address)": {
        "params": {
          "_address": "Adress of the new user\r"
        }
      },
      "newImage(string,bytes32)": {
        "params": {
          "imageFingerprint": "sha256 32 byte fingerprint of image data stored in db\r",
          "imageId": "unique Id of image, equal to image id in DB\r"
        }
      }
    },
    "title": "Image Handling\r"
  },
  "userdoc": {
    "methods": {
      "addAuthorizedUser(address)": {
        "notice": "Add authorized users\r"
      },
      "getImage(string)": {
        "notice": "Returns all images\r"
      },
      "newImage(string,bytes32)": {
        "notice": "Add new Image to blockchain storage\r"
      }
    },
    "notice": "Contract for storing image keypoints, color histogram, metadata and image imageOwner\r"
  }
}